:020000040800F2
:10000000F80A002001010008C9140008710E000858
:10001000610F0008A901000809190008000000008C
:10002000000000000000000000000000ED140008C7
:10003000D501000800000000EB14000809150008B5
:100040001B0100081B0100081B0100081B01000820
:100050001B0100081B0100081B0100081B01000810
:100060001B0100081B0100081B0100081B01000800
:100070001B0100081B0100081B0100081B010008F0
:100080001B0100081B0100081B0100081B010008E0
:100090001B0100081B0100081B0100081B010008D0
:1000A0001B0100081B0100081B0100081B010008C0
:1000B0001B0100081B010008000000001B010008D4
:1000C0001B01000800000000000000001B010008E8
:1000D00000000000FD1800081B01000800000000DF
:1000E0001B0100081B0100081B010008DFF80CD0F1
:1000F00000F048F800480047E11C0008F80A00201A
:100100000648804706480047FEE7FEE7FEE7FEE7B1
:10011000FEE7FEE7FEE7FEE7FEE7FEE7B9150008AB
:10012000ED000008D2B201E000F8012B491EFBD21D
:1001300070470022F6E710B513460A4604461946F2
:10014000FFF7F0FF204610BD421C10F8011B0029EC
:10015000FBD1801A704730B50B46014600202022A3
:10016000012409E021FA02F59D4205D303FA02F5C4
:10017000491B04FA02F52844151EA2F10102F1DC24
:1001800030BD0000064C074D06E0E06840F001037A
:1001900094E8070098471034AC42F6D3FFF7AAFF63
:1001A0002020000840200008FEE7000030B502468D
:1001B0004FF6FF70064D07E012F8013B040A43407A
:1001C000DBB235F813006040491EC9B2F4D230BD2D
:1001D000081E0008704770470148406870470000DB
:1001E000040000200A2804D2074931F81020012A0F
:1001F00001D000207047044A143A32F8102021F848
:100200001020012070470000D802002010B590F89F
:1002100021100024022903D00421816301243DE040
:1002200001680A6822F00E020A6001680A6822F07A
:1002300001020A601A4A0168914201D1012121E0BC
:10024000174A1432914201D110211BE0144A28327E
:10025000914201D1891515E0114A3C32914201D1F8
:1002600089140FE00E4A5032914202D14FF480318E
:1002700008E00B4A6432914202D14FF4801101E050
:100280004FF08071064A083A5160012180F8211030
:10029000002180F82010416B01B18847204610BD35
:1002A000080002402DE9F84FDFF894A100220AF17E
:1002B000040B14464FF0010C4FF00F090BF1040E24
:1002C0000B680CFA04F52B40AB4271D15D4E4F68C0
:1002D000A7EB0608B7422BD00DDC032F34D005DC8A
:1002E00037B3012F19D0022F2FD11BE0112F16D0B9
:1002F000122F2AD119E0B8F5881F19D006DCB8F5FD
:10030000803F15D0B8F5801F1FD111E0B8F5001F50
:100310000ED0B8F5041F18D10AE0CA6815E0CA6803
:10032000121D12E0CA6808320FE0CA680C320CE0F5
:100330008A682AB1012A4FF0080203D0456104E01F
:10034000042202E0056100E00022FF2B01D80746ED
:1003500001E000F104074FEA840601D9A6F1200666
:100360003D6809FA06F825EA080502FA06F645EAA4
:1003700006053D604D68ED005CD5334DAE6946F035
:100380000106AE61AD6924F0030605F00105009594
:100390002E4D7719BD68A607360F09FA06F825EA2B
:1003A0000805DFF8AC80404503D14FF0000810E0AD
:1003B00040E0DFF8A080404502D14FF0010808E09E
:1003C000DFF89480404502D14FF0020801E04FF081
:1003D000030808FA06F848EA0508C7F808804D68D7
:1003E000ED0305D5DAF800501D43CAF8005004E0CB
:1003F000DAF800609E43CAF800604D68DBF80060E0
:10040000AD035D4601D51E4300E09E432E604D685E
:10041000DEF80060ED02754601D51E4300E09E4304
:100420002E604D68AD020D4D2E6801D51E4300E0D3
:100430009E432E60641C102CFFF442AFBDE8F88F81
:1004400000040140000011100010024000000140B3
:1004500000080140000C0140001001400C04014064
:10046000C2684A40C26070470AB10161704709041E
:10047000FBE7000001488068704700000C00002086
:1004800070B5040011D021684CF6CC40086021689A
:1004900045F255500860D4E9000141602168A06828
:1004A0008860FFF7E7FF054609E0012070BD00BF47
:1004B000FFF7E0FF401B302801D9032070BD206802
:1004C000C0680028F4D121684AF6AA2008600020FC
:1004D00070BD00684AF6AA21016000207047000044
:1004E0000248816802781144816070470C00002046
:1004F000074810B5016841F010010160032000F0C9
:1005000073F8002000F006F800F024F8002010BD79
:100510000020024070B50D4D04464FF47A712878E2
:10052000B1FBF0F00A490968B1FBF0F000F0FCFA09
:1005300048B9102C07D200222146501E00F034F892
:1005400000206C6070BD012070BD00000C00002018
:10055000180000200C4808B5816941F00101816153
:10056000816901F001010091C16941F08051C161CF
:10057000C06900F0805000900448416821F0E061BB
:1005800041F00071416008BD0010024000000140D0
:1005900000F01F02012191404009800000F1E0209D
:1005A000C0F8001170470000F0B40E4B1B680C46F9
:1005B000C3F30223C3F10705042D00D90425191D37
:1005C000072901D2002300E0DB1E012606FA05F10F
:1005D000491E214099409E40761E16403143F0BC92
:1005E00000F073BF0CED00E0064900F00702086858
:1005F0004FF6FF03184040EA0220034A1043086008
:10060000704700000CED00E00000FA052DE9F0470E
:10061000DFF8548105460E46D8F8000000F00700C8
:10062000B0420CD2D8F8001021F007013143C8F8CD
:100630000010D8F8000000F00700B0426FD1286821
:100640004A4C810712D5400703D5606840F4E0604A
:1006500060602878000703D5606840F460506060EF
:100660006068A96820F0F000084360602878C0073F
:1006700044D06868012816D02168022816D089075E
:1006800000294CDA616821F0030101436160FFF742
:10069000F1FE6968074641F2883001290ED002292F
:1006A000814618D026E021688903E9E78901E7E758
:1006B000FFF7E0FEC11B494501D918E0814660689B
:1006C000C0F381000128F3D118E000BFFFF7D2FE8C
:1006D000C11B49450BD86068C0F381000228F5D1E1
:1006E0000CE000BFFFF7C6FEC11B494502D903203D
:1006F000BDE8F087606810F00C0FF3D1D8F8001057
:10070000404601F00701B1420BD9016821F0070111
:1007100031430160006800F00700B04201D00120C1
:10072000E6E72878400705D56068E96820F4E060CE
:10073000084360602878000706D56068296920F4BE
:10074000605040EAC100606000F036F86168084A15
:10075000C1F30311515CC840064908600020FFF74F
:10076000D9FE0020C4E70000002002400010024033
:10077000082000081800002004480549006849685E
:10078000044AC1F30221515CC840704718000020A0
:100790000010024018200008044805490068496814
:1007A000044AC1F3C221515CC840704718000020C0
:1007B000001002401820000812A185B00FC98DE872
:1007C0000F0014A0144A006804905168134801F007
:1007D0000C03042B10D0082B0ED1C1F38343C903A3
:1007E0001DF803000AD5516804AAC1F34041515CC9
:1007F0000A4A5043B0FBF1F005B07047084948433E
:10080000FAE7000002030405060708090A0B0C0DAD
:100810000E0F1010010200000010024000127A00BA
:1008200000093D002DE9F84F04460078B94DC00796
:1008300048D06868C0F38100012807D06868C0F319
:100840008100022809D16868C00306D528688003A2
:1008500038D5606800286FD034E06068B0F5803F1C
:100860000BD010B1B0F5A02F11D0286820F4803043
:100870002860286820F4802002E0286840F4803056
:100880002860606888B1FFF7F5FD064609E0286832
:1008900040F480202860F0E7FFF7ECFD801B64281F
:1008A00075D828688003F7D50CE0FFF7E3FD06460E
:1008B00005E000BFFFF7DEFD801B6428F0D8286844
:1008C0008003F7D42078944E80074FF001094FF051
:1008D00000083BD5686810F00C0F07D06868C0F3BB
:1008E0008100022809D16868C00306D428688007FF
:1008F00014D5206901281FD110E02069B0B1C6F8D5
:100900000090FFF7B7FD074605E000BFFFF7B2FD17
:10091000C01B0228C4D828688007F7D528686169F9
:1009200020F0F80040EAC10028600FE0C6F800801F
:10093000FFF7A0FD074606E0E9E000BFFFF79AFDDC
:10094000C01B022823D828688007F7D42078000726
:100950002CD57248A169D9B1C0F80090FFF78AFD83
:10096000074604E0FFF786FDC01B02280FD8686A1F
:100970008007F7D56A484FF4FA510068B0FBF1F0F0
:10098000009000BF0098411E0091FAD20EE080E076
:10099000C0F80080FFF76EFD074604E0FFF76AFD30
:1009A000C01B022875D8686A8007F7D420784007F2
:1009B00060D5E8690027C00008D4E86940F080509D
:1009C000E861E869012700F080500090554801680F
:1009D000C90513D40168834641F480710160FFF7B3
:1009E00049FD824606E000BFFFF744FDA0EB0A0088
:1009F00064284ED8DBF80000C005F5D5E068012872
:100A00000AD008B1052813D0286A20F00100286216
:100A1000286A20F0040002E0286A40F00100286201
:100A2000E06841F2883B98B1FFF724FD82460BE075
:100A3000286A40F004002862EEE700BFFFF71AFDC5
:100A4000A0EB0A0159455AD8286A8007F6D50CE070
:100A5000FFF710FD824605E0FFF70CFDA0EB0A0151
:100A600059454CD8286A8007F6D41FB1E86920F0B0
:100A70008050E861E06988B36968C1F381010229A7
:100A800045D00228C6F8608004D0FFF7F3FC044686
:100A900038E034E0FFF7EEFC074604E0FFF7EAFC3D
:100AA000C01B02282BD828688001F7D4206AB0F533
:100AB000803F05D16868A16820F400300843686071
:100AC000D4E908010843696821F474110843686097
:100AD000C6F86090FFF7CEFC044606E015E000BFC4
:100AE000FFF7C8FC001B022809D828688001F7D549
:100AF0000BE000BFFFF7BEFC001B022802D9032059
:100B0000BDE8F88F28688001F4D40020F8E70120C0
:100B1000F6E700000010024000004242800442421A
:100B2000180000200070004010B5401EB0F1807F1A
:100B300001D3012010BD4FF0E02460610F21601748
:100B400000F0C3FC0020A06107202061002010BD40
:100B50007047000070B5026804461068D168536998
:100B600010F00F0F51D003F0010501F490763543DA
:100B70005DD0C20705D0CA0503D5E26B42F0010281
:100B8000E263420705D5DA0703D0E26B42F00202C6
:100B9000E263820705D5DA0703D0E26B42F0040274
:100BA000E263020705D5DA0703D0E26B42F00802E0
:100BB000E263E26B002A34D0800604D5880602D5B1
:100BC000204600F033FD20684069E16BC0F38010DF
:100BD00001F008010143204624D000F019FD2068EF
:100BE000416949061AD5416921F040014161606BB4
:100BF000A0B11B494163606BFFF708FB002810D0D0
:100C0000606B416BBDE87040084783060FD58B06CB
:100C10000DD52046BDE8704000F008BD2046FFF726
:100C200097FF70BDFFF794FF0020E06370BD0306DF
:100C300006D50B0604D52046BDE8704000F0FABD8D
:100C40004006F3D54806F1D5D168204621F0400191
:100C5000D160202184F8391000F009F970BD00003E
:100C60000116000870B5040004D094F8390000257E
:100C700010B106E0012070BD84F83850204600F025
:100C800023F8242084F839002068C16821F4005139
:100C9000C160204600F016FD2068016921F49041F2
:100CA00001612068416921F02A0141612068C16821
:100CB00041F40051C160E563202084F8390084F8D4
:100CC0003A00002070BD000030B585B000240094CB
:100CD0000194029403940068184988422CD1184862
:100CE000816941F480418161816901F4804104910D
:100CF000816941F0040181618069124D00F00400B6
:100D000004904FF4007000900220019003200390A3
:100D100069462846FFF7C6FA2815CDE9000469465A
:100D200028460294FFF7BEFA002211462520FFF75D
:100D30003BFC2520FFF72CFC05B030BD00380140FE
:100D4000001002400008014090F83A30202B22D1D8
:100D5000F9B1F2B190F83830012B1CD08162828554
:100D6000C2850021C163222280F83A2080F8381021
:100D70000168CA6842F48072CA6001684A6942F038
:100D800001024A610068C16841F02001C160002091
:100D900070470120704702207047000003498842D5
:100DA00002D1034800F0F0BA704700003000002084
:100DB000700000202DE9F843044690F839001F46E2
:100DC00016460D46202850D1A5B19EB194F83800A2
:100DD00001284AD0012084F838004FF00008C4F8F8
:100DE0003C80212084F83900FFF744FBA68481462B
:100DF000E68426E00120BDE8F883E08C401EE08414
:100E0000A0684B46B0F5805F4FF000024FF08001C4
:100E10002046009703D000F03EFDE8B90DE000F059
:100E20003AFDC8B928882168C0F3080048602069E5
:100E300008B16D1C05E0AD1C03E0216815F8010B3D
:100E40004860E08C0028D8D14B4600224021204643
:100E5000009700F020FD08B10320CCE7202084F8A3
:100E6000390084F838800020C5E70220C3E77047C6
:100E7000FEE700002DE9F04186B000241C480094F4
:100E8000019402940394816941F0040181618169B4
:100E900001F004010491816941F0080181618069D8
:100EA000144F00F0080004900022FF213846FFF79D
:100EB000DBFADFF84480002221214046FFF7D4FA14
:100EC000FF2001250226CDE90005CDE9024669464D
:100ED0003846FFF7E7F92120CDE90005CDE90246C4
:100EE00069464046FFF7DEF906B0BDE8F081000034
:100EF0000010024000080140000C0140094810B5F4
:100F0000074901600021416040F6FF718160FFF7F1
:100F1000B7FA002803D0BDE81040FFF75CB910BD58
:100F200000300040240000200C4810B50A49016040
:100F30004FF416414160002181600C22C160C0E97C
:100F400004128161C161FFF78DFE002803D0BDE866
:100F50001040FFF740B910BD0038014030000020BC
:100F6000FEE700002DE9F35F4FF0010A0446A0F808
:100F700004A04FF4E13B00250A26C0F800B0C4E904
:100F800002560661142000F009FF42F20F776061FB
:100F900068B3E1684900FFF7CCF800BF4FF0C8081C
:100FA000C4E90A584FF4C8794846C4F8308000F0C4
:100FB000F5FE6063E8B1E16A4900FFF7BAF800BFE7
:100FC000C4E906584846C4F8208000F0E7FE606295
:100FD00088B1E1694900FFF7ACF821680520B1F557
:100FE000164F13D009DCB1F5165F0BD10DE0E760A9
:100FF000D4E7E762E4E7E761EFE7B1F5614F05D0D9
:10100000594503D084F8446202E00F2084F844027A
:1010100084F8405284F84352A4F8465284F848A217
:1010200004F13800C4F8380204F59C70C4F83C029E
:101030000198C4F8500202B00122BDE8F05F0149F6
:10104000FFF782BE00000020F0B5D0F83842054618
:10105000607870B3C11F08292BD3102829D895F8C0
:101060004102A0F10801F3296BD2801EC1B22046D3
:10107000FFF79CF8014695F84122A01E1044008815
:1010800081425ED16088637841BAA088012240BA6B
:10109000012B10D0022B0ED00826052B47D00F2B8A
:1010A0005ED0032B7ED0042B7DD0062B7CD0102B62
:1010B0007BD00120F0BDB0F5707F42D8AB688B4289
:1010C00074DC2E690B18B34270DCA31C46074FEA90
:1010D000D00600D0761C03F8016B2E89891B8EB2D6
:1010E00000210F461CE000BFD5F814C03CF816C024
:1010F000BCF1000F93F800C002FA01FE02D04CEAE6
:101100000E0C01E02CEA0E0C491CC9B283F800C099
:10111000082901D300215B1C761C7F1CB6B2BFB22C
:101120008742E1D3A078401D85F8420216E0AB6803
:101130008B423BDC2C698C4238DDB0F57F4F01D00F
:1011400028B15DE06869C91A20F8112004E0002088
:101150006A69C91A22F8110085F842620020F0BDC0
:10116000AF688F427FDCD5F810C00B1863457ADC7E
:10117000C91BD5F814C000230CEB41071946E41D28
:1011800019E000BF94F800C002FA03FE1CEA0E0C3E
:1011900001D04FF0010C5B1CDBB227F802CB082B0F
:1011A00007D304E00AE029E04AE054E05BE00023D2
:1011B000641C491C89B28142E4D3CDE77D281FD845
:1011C000AB6A8B424FDC2E6B0A18B2424BDCA21C7E
:1011D0006E6BC91A06EB4103410002F8011B0021A6
:1011E00009E01E88360A02F8016B13F8026B491CED
:1011F00002F8016B89B28142F3D393E77D2801D9CC
:101200000320F0BDAB698B422DDC2E6A0A18B24276
:1012100029DCA21C6E6AC91A06EB4103410002F8E0
:10122000011B002109E01E88360A02F8016B13F841
:10123000026B491C02F8016B89B28142F3D371E75A
:10124000AB6A8B420FDC2C6B8C420CDD6C6BC91AC9
:1012500024F811001EE0AB6A8B4204DCD5F830C0E4
:101260000F18674501DD0220F0BDC91A6F6B00231E
:1012700007EB4101E41D0BE014F8017B3F020F80F6
:1012800014F801CB5B1C47EA0C0721F8027B9BB2E8
:101290008342F1D385F848225EE770B50446B0F882
:1012A000460294F84412884262D9D4E98E10C4E907
:1012B0008E0194F84012002684F84112012284F82D
:1012C000406284F84322082950D30078B4F904100E
:1012D00088424BD1FEF780FF05462046FFF7B4FE5B
:1012E00084F84502D0B1D4F83802417841F0800149
:1012F0004170D4F8381294F845028870D4F8380256
:10130000032104F50E74FEF751FF2168C8702168AF
:10131000000A052208712168A06917E094F84202CA
:10132000801EC1B2D4F8380204F50E74FEF73EFFF9
:10133000A27A2168114401F8020CA27A2168000AFD
:10134000114401F8010CA27A2168A069A4F50E7479
:1013500000F0DBFAB4F84C02E26A616B6FF0010353
:10136000281A03EB42028852C4F84C52A4F8466291
:1013700070BD00000348B0F84612491CA0F84612A0
:10138000704700007000002030B490F84312002233
:1013900091B10E49B0F904400B789C4204D090F80A
:1013A000401209B980F8432290F84042D0F83C52EC
:1013B000611C80F840122B55A0F84622D0F850024C
:1013C00030BC01220149FFF7BFBC00000000002033
:1013D00010B59AB017491848FFF7C4FD164C17A16D
:1013E0006846B4F90420236800F0B0FA6946114851
:1013F00000F098FAD4E9022318A1684600F0A6FA92
:1014000069460C4800F08EFAD4E90A231BA168460D
:1014100000F09CFA6946074800F084FAD4E90623F4
:101420001EA1684600F092FA6946024800F07AFA76
:101430001AB010BD30000020700000200D0A537457
:101440006174696F6E204E6F3A2025642C204261D2
:101450007564726174653A20256400000D0A436F5B
:10146000696C205374617274206164723A2025346F
:10147000642C204C656E3A20253464000D0A5265B8
:101480006720205374617274206164723A2025349D
:10149000642C204C656E3A20253464000D0A526F8E
:1014A0006D20205374617274206164723A20253477
:1014B000642C204C656E3A20253464000148FFF707
:1014C000ECBE00007000002070470907090E0028DC
:1014D00006DA00F00F0000F1E02080F8141D7047DC
:1014E00000F1E02080F8001470477047704700005A
:1014F0000A2806D2034A491C22F81010143222F896
:1015000010107047C402002010B5FEF7E9FFFFF786
:1015100031FF0C484168491C4160016811B90168FC
:10152000491E01600849002031F81020012A04D921
:1015300031F81020521E21F81020401C0A28F3DB3D
:1015400010BD000004000020D8020020084A10B599
:101550000020014602F1140302F1280422F81010C1
:1015600023F810102154401C0A28F7DB10BD00009E
:10157000C402002010B590B028216846FEF7D9FDBE
:1015800014210AA8FEF7D5FD0A20009001200024AE
:10159000CDE906041021CDE904016846FFF742F9C0
:1015A0000F20CDE90A040C940D9400210AA80E9492
:1015B000FFF72CF810B010BD0D48016841F0010193
:1015C000016041680B4A1140416001680A4A1140BC
:1015D0000160016821F480210160416821F4FE016D
:1015E00041604FF41F0181600449C00308607047E7
:1015F000001002400000FFF8FFFFF6FE08ED00E0DB
:1016000010B5406A0021C185C184FFF7A1FA10BD61
:101610000168CA6822F49072CA6001684A6922F0BF
:1016200001024A61202180F83A10704710B590F805
:101630003A10222901D0022010BD8168B1F5805FE7
:1016400011D00169002901681FD0496801F07F03AA
:10165000816A4A1C82620B70C18D491E0904090C03
:10166000C18518D02BE00269816A002A026852689D
:1016700005D0D2B20A80816A491C8162ECE7C2F3CC
:1016800008020A80816A891CF7E74A68816A4B1C54
:1016900083620A70E0E70168CA6822F02002CA602B
:1016A0000168CA6822F48072CA6001684A6922F03F
:1016B00001024A61202180F83A10FFF76FFB0020F9
:1016C00010BD00002DE9F041044600680169E268A0
:1016D00021F44051114301612169A0680843616907
:1016E00008432168CA6841F20C639A430243CA6006
:1016F00020684169A26921F44071114341614C495C
:1017000020686425322688423CD1FFF745F800EB7B
:10171000C00101EB001061688900B0FBF1F7FFF731
:101720003BF800EBC00101EB00106168B046890096
:10173000B0FBF1F0B0FBF5F06FF01801484307EB98
:10174000800106EB0110B0FBF5F000F0F006FFF7AA
:1017500023F800EBC00101EB001061688900B0FBC9
:10176000F1F0B0FBF5F006EB0016FFF715F800EB13
:10177000C00101EB001061688900B0FBF1F7FFF7D1
:101780000BF83BE0FEF7F8FF00EBC00101EB0010A7
:1017900061688900B0FBF1F7FEF7EEFF00EBC001D6
:1017A00001EB00106168B0468900B0FBF1F0B0FBBE
:1017B000F5F06FF01801484307EB800106EB0110CC
:1017C000B0FBF5F000F0F006FEF7D6FF00EBC0012D
:1017D00001EB001061688900B0FBF1F0B0FBF5F09F
:1017E00006EB0016FEF7C8FF00EBC00101EB00108E
:1017F00061688900B0FBF1F7FEF7BEFF00EBC001A6
:1018000001EB001061688900B0FBF1F0B0FBF5F06E
:101810006FF01801484307EB800108EB0110B0FBA3
:10182000F5F0216800F00F0030448860BDE8F081D9
:101830000038014090F83910212901D0022070476A
:101840008168B1F5805F016A0BD04A1C02620268B0
:1018500009785160C18C491E0904090CC1840ED05D
:1018600017E009880268C1F3080151600169002985
:10187000016A02D0491C0162ECE7891CFBE70168A0
:10188000CA6822F08002CA600068C16841F0400165
:10189000C160002070472DE9F041984617460E467A
:1018A0000446069D1DE0681C1BD02DB1FEF7E2FD2D
:1018B000A0EB0800A84214D92068C16821F4D071B7
:1018C000C1602068416921F001014161202084F854
:1018D000390084F83A00002084F838000320BDE87D
:1018E000F0812068006836EA000004D00020B84289
:1018F000D9D00020F3E70120F9E700000148FFF705
:1019000029B9000030000020FEE710B592B24FF672
:10191000FF73FFF74FFA002803D0BDE81040FEF731
:101920005ABC10BD70B505460C460846FEF70CFCC7
:1019300082B24FF6FF7321462846FFF73BFA002894
:1019400003D0BDE87040FEF746BC70BD0FB4084B35
:1019500010B504A902AA039800F01CF8044602A9D5
:10196000002000F0B8F9204610BC5DF814FB000020
:10197000D71C000802E008C8121F08C1002AFAD1CB
:1019800070477047002001E001C1121F002AFBD1FF
:10199000704700002DE9FF4F8BB0884605460026B2
:1019A00006E025280BD0DDE90D1290476D1C761C52
:1019B00028780028F5D10FB03046BDE8F08F00241C
:1019C000A146A2460122AE4900E0044315F8013FBA
:1019D000203B02FA03F00842F7D128782A2810D0D9
:1019E0006FF02F022878A0F13001092915D809EBF2
:1019F000890102EB410144F0020400EB01096D1C76
:101A0000F0E758F8041B5FEA010903D544F40054D9
:101A1000C9F1000944F002046D1C28782E2817D162
:101A200015F8010F44F004042A280ED06FF02F029D
:101A30002878A0F1300109290AD80AEB8A0102EBC3
:101A4000410100EB010A6D1CF2E758F804AB6D1C74
:101A500028786C280FD006DC4C2817D068280DD0C9
:101A60006A2814D104E0742810D07A280FD10DE030
:101A700044F400140AE044F4801401E044F44014F7
:101A80006978814202D104F580146D1C6D1C2878A0
:101A9000692865D006DC00288DD0632827D064280B
:101AA00006D15DE06E2808D073282AD0752877D03B
:101AB000DDE90D129047761CE0E0C4F302500228E5
:101AC00009D003280DD0D8F8001004280DD00E60DE
:101AD00008F10408D2E0D8F80010F217C1E900625A
:101AE000F6E7D8F800100E80F2E70E70F0E718F86D
:101AF000041B8DF8001000208DF80100EB4601203A
:101B000003E058F804BB4FF0FF3061074FF00007C7
:101B100001D40AE07F1C57450DDA8742FADB1BF837
:101B200007100029F6D106E07F1C8742FCDB1BF87A
:101B300007100029F8D1DDE90D23A9EB0700814644
:101B4000214600F0B1F83044C61904E0DDE90D1279
:101B50001BF8010B90477F1EF8D22146484688E0CB
:101B600058F8040BC4F302514FF00A0B032900D1BB
:101B700000B2042900D140B2002802DA40422D21EF
:101B800002E0210505D52B218DF82410012104E068
:101B900006E0E10710D02021F6E708AF089113E036
:101BA00058F8040BC4F302514FF00A0B032900D17B
:101BB00080B2042900D1C0B20021EEE75946FEF7F9
:101BC000CAFA303107F8011D0028F7D1ADEB070044
:101BD00000F1200B600702D524F4803401E04FF0BF
:101BE000010ADA4502DDAAEB0B0000E00020824684
:101BF00000EB0B0108980144A9EB01000A90E003F7
:101C000006D4DDE90D2321460A9800F04DF806447C
:101C10004FF0000908E009A911F80900DDE90D12EB
:101C2000904709F10109761C08998945F3DBE00327
:101C30000CD5DDE90D2321460A9800F035F806445D
:101C400004E0DDE90D1230209047761CBAF1000166
:101C5000AAF1010AF5DC05E0DDE90D1217F8010B28
:101C60009047761CBBF10001ABF1010BF4DC0A9844
:101C70002146DDE90D2300F005F806446D1C97E6CA
:101C8000092801002DE9F041044600251E461746AB
:101C9000880404D405E039462020B0476D1C641E3A
:101CA000F9D52846BDE8F0812DE9F041044600252C
:101CB0001E469046C80301D5302700E0202788043F
:101CC00004D505E041463846B0476D1C641EF9D581
:101CD0002846BDE8F0810A68531C0B6010707047FD
:101CE000FEF706FCFFF746FCFFF7C4F8FFF706F91E
:101CF000FFF71AF9FFF72AFCFFF76AFB64210020BF
:101D0000FFF7F6FB4FF47A710120FFF7F1FB4FF478
:101D1000FA710220FFF7ECFB1C4F1D4EDFF87480B8
:101D2000012500BFFFF7CAFB0020FEF75BFA10B1E8
:101D30001948FEF7CEFB0120FEF754FA18B1202116
:101D40004046FEF78DFB0220FEF74CFA0028E9D052
:101D50000024706B30F81400002805FA04F081B2FA
:101D600001D0012200E000223846FEF77DFB641C12
:101D7000082CEEDB706B008A08B1012200E0002223
:101D800001214046FEF770FBCCE70000000801404F
:101D900070000020000C014024000020F0B50B3042
:101DA000154D20F007010024144A0FE003688B4210
:101DB0000BD38B4205D95E1A43184768C3E9006705
:101DC00000E04368136002C004E0021D10680028B0
:101DD000ECD12046002802D1286808B10020F0BDCF
:101DE000064A07481060074A121A22F00702C0E9A3
:101DF000002401202860D7E7200000201C000020DC
:101E0000FC020020F80600200000C1C081C1400192
:101E100001C3C003800241C201C6C006800741C79A
:101E20000005C1C581C4400401CCC00C800D41CD6A
:101E3000000FC1CF81CE400E000AC1CA81CB400B3A
:101E400001C9C009800841C801D8C018801941D90A
:101E5000001BC1DB81DA401A001EC1DE81DF401F9A
:101E600001DDC01D801C41DC0014C1D481D54015AA
:101E700001D7C017801641D601D2C012801341D3BA
:101E80000011C1D181D0401001F0C030803141F14A
:101E90000033C1F381F240320036C1F681F740379A
:101EA00001F5C035803441F4003CC1FC81FD403D6A
:101EB00001FFC03F803E41FE01FAC03A803B41FB3A
:101EC0000039C1F981F840380028C1E881E940298A
:101ED00001EBC02B802A41EA01EEC02E802F41EF9A
:101EE000002DC1ED81EC402C01E4C024802541E5AA
:101EF0000027C1E781E640260022C1E281E34023BA
:101F000001E1C021802041E001A0C060806141A1C9
:101F10000063C1A381A240620066C1A681A7406799
:101F200001A5C065806441A4006CC1AC81AD406D69
:101F300001AFC06F806E41AE01AAC06A806B41AB39
:101F40000069C1A981A840680078C1B881B9407909
:101F500001BBC07B807A41BA01BEC07E807F41BF99
:101F6000007DC1BD81BC407C01B4C074807541B5A9
:101F70000077C1B781B640760072C1B281B34073B9
:101F800001B1C071807041B00050C1908191405149
:101F90000193C053805241920196C0568057419799
:101FA0000055C19581944054019CC05C805D419D69
:101FB000005FC19F819E405E005AC19A819B405B39
:101FC0000199C059805841980188C0488049418989
:101FD000004BC18B818A404A004EC18E818F404F99
:101FE000018DC04D804C418C0044C18481854045A9
:101FF0000187C047804641860182C04280434183B9
:102000000041C181818040400000000000000000CC
:10201000010203040607080900000000010203048E
:10202000402000080000002024000000741900086F
:102030006420000824000020D40A0000841900084D
:10204000000000000000000000000000010000008F
:10205000100000000000000000A24A040000000080
:04206000000000007C
:04000005080000ED02
:00000001FF
